:030000000209648E
:0C096400787FE4F6D8FD7581290209AB0C
:1009F000141600C000F900A400B000990092008213
:060A000000F800800090E8
:10080000E4F514F515F512F513F510F511F50EF5DF
:100810000FF50CF50DF50AF50BE509B45812E508CE
:10082000B41B0DE4F508F509050BE50B7002050A8C
:1008300075A0FFD295C290C291C292C293C294E5B4
:100840000B25E02416F808E6F5A0E50B640A450A36
:10085000700CF50AF50B050DE50D7002050C75A081
:10086000FFD294C290C291C292C293C295E50D2567
:10087000E02416F808E6F5A0E50D6406450C700CBA
:10088000F50CF50D050FE50F7002050E75A0FFD2F2
:1008900093C290C291C292C294C295E50F25E02402
:1008A00016F808E6F5A0E50F640A450E700CF50E83
:1008B000F50F0511E5117002051075A0FFD292C267
:1008C00090C291C293C294C295E51125E02416F816
:1008D00008E6F5A0E51164064510700CF510F51159
:1008E0000513E5137002051275A0FFD291C290C2E4
:1008F00092C293C294C295E51325E02416F808E647
:10090000F5A0E513640A4512700CF512F5130515F0
:10091000E5157002051475A0FFD290C291C292C273
:1009200093C294C295E51525E02416F808E6F5A0D3
:10093000E515640145147021E5136403451270192F
:10094000F50AF50BF50CF50DF50EF50FF510F51193
:10095000F512751301F514F5150509E50970020581
:040960000802081968
:10097000020800E493A3F8E493A34003F68001F295
:1009800008DFF48029E493A3F85407240CC8C33388
:10099000C4540F4420C8834004F456800146F6DF57
:1009A000E4800B01020408102040809009F0E47EEE
:1009B000019360BCA3FF543F30E509541FFEE4934C
:1009C000A360010ECF54C025E060A840B8E493A313
:1009D000FAE493A3F8E493A3C8C582C8CAC583CA3E
:1009E000F0A3C8C582C8CAC583CADFE9DEE780BEF6
:010A060000EF
:00000001FF
