:030000000208A64D
:0C08A600787FE4F6D8FD75810F0208B2DF
:0808B200E4F5A012087680FBBA
:0A080000C2A27F647E007D007C0030
:10080A008F0B8E0A8D098C08E4FFFEFDFCAB0BAA48
:0B081A000AA909A808D3120895405055
:10082500E4750F01F50EF50DF50CE47FCE7E31FD77
:10083500FCAB0FAA0EA90DA80CC31208955017E51D
:100845000F2401F50FE4350EF50EE4350DF50DE435
:10085500350CF50C80D4E50B24FFF50BE50A34FFC8
:0E086500F50AE50934FFF509E50834FFF5084A
:03087300809D2243
:10087600D2A0C2A1120800C2A0D2A1120800C2A032
:0F088600C2A1D2A27F647E007D007C0002080A1E
:10089500EB9FF5F0EA9E42F0E99D42F0E89C45F0B9
:0108A5002230
:00000001FF
